:1000000003308A002D2B00000C1C10280130AA0799
:100010000318AB0A0319AC0A0319AD0A0C10242803
:100020000F08A3000E08A0000F082302031D1028CC
:1000300020080C1C2D280130AA070318AB0A03194D
:10004000AC0A0319AD0A0C100F08A3000E08A0009B
:100050000F082302031D242820082308A0002A08D3
:10006000A1002B08A2002C08A3002D08D600D60C56
:10007000A30CA20CA10CA00C0800563084000008B0
:1000800003194F280630A100A001A00B4528A10BA1
:1000900044287B30A000A00B4B28800B422808008E
:1000A0000330DE02031C5D285E3084000008031963
:1000B0005D285B285B28800B5A28080008148316EB
:1000C000081083128815831688118312580B932801
:1000D000DA01D9015A085702031C9228031D74281B
:1000E000560859020318922883160811831208151E
:1000F00083168812831288161030A000A00B7E2869
:1001000000008316081183120811831688128312C7
:1001100088121030A000A00B8B280000D90A031908
:10012000DA0A6A28BF28DC01DB015C085702031CDD
:10013000BF28031D9F2856085B020318BF2883169B
:10014000081183120815831688128312881610303E
:10015000A000A00BA9280000831608118312081123
:1001600083168812831288120230DD00F930DE0017
:100170005020DD0BB628DB0A0319DC0A9528560847
:10018000AE025708031C570FAF0208000810831671
:10019000081083128815831688118312580BFB28C8
:1001A000DA01D9015A085702031CFA28031DDC287A
:1001B000560859020318FA288316081183120815E5
:1001C00083168812831288161030A000A00BE62830
:1001D00000008316081183120811831688128312F7
:1001E00088121030A000A00BF3280000D90A0319D0
:1001F000DA0AD2282729DC01DB015C085702031C3C
:100200002729031D072956085B020318272983168F
:10021000081183120815831688128312881610306D
:10022000A000A00B112900008316081183120811E9
:1002300083168812831288120230DD00F930DE0046
:100240005020DD0B1E29DB0A0319DC0AFD285608A5
:10025000B0025708031C570FB10208008316061698
:100260008312061E3E29831606168312061E3E2999
:10027000D7010130D600D8005E20332983168616B8
:100280008312861E4E29831686168312861E4E29D9
:10029000D7010130D600D800C62043290330D7004B
:1002A000E830D6000130D8000810831608108312F9
:1002B0008811831688118312580B8929DA01D90114
:1002C0005A085702031C8829031D6A295608590237
:1002D00003188829831608118312081583168812BB
:1002E000831288161030A000A00B7429000083161A
:1002F0000811831208118316881283128812103095
:10030000A000A00B81290000D90A0319DA0A60298C
:10031000B529DC01DB015C085702031CB529031D6C
:10032000952956085B020318B52983160811831214
:10033000081583168812831288161030A000A00BAF
:100340009F29000083160811831208118316881252
:10035000831288120230DD00F930DE005020DD0B00
:10036000AC29DB0A0319DC0A8B295608AE075708AB
:100370000318570FAF070330D700E830D60001301D
:10038000D800081483160810831288118316881168
:100390008312580BF629DA01D9015A085702031CB7
:1003A000F529031DD729560859020318F529831684
:1003B00008118312081583168812831288161030CC
:1003C000A000A00BE1290000831608118312081178
:1003D00083168812831288121030A000A00BEE2919
:1003E0000000D90A0319DA0ACD29222ADC01DB012F
:1003F0005C085702031C222A031D022A56085B02CE
:100400000318222A831608118312081583168812EE
:10041000831288161030A000A00B0C2A000083164F
:100420000811831208118316881283128812023071
:10043000DD00F930DE005020DD0B192ADB0A03193C
:10044000DC0AF8295608B00757080318570FB107F8
:10045000831606168312061E332AD7010130D600F2
:10046000D8015E20282A831686168312861E3E2A0D
:10047000D7010130D600D801C620332AAF01AE0122
:10048000B101B0018A11602C8A11952C4208D90063
:100490004108D8004008D7003F08D600AE30DD0044
:1004A0004730DC000130DB007F30DA0056080319EA
:1004B000C62ADE005A080319C62ADE070318672A6F
:1004C0007F30DE02031CC62A0319C62A6B2A81303C
:1004D000DE070318C62A5E08A000A101A201A3013D
:1004E0005708E200E2175808E1005908E000183008
:1004F000DE00DF01601C942A5D08A307031C862A26
:10050000A20A031D862AA10A0319DF175C08A207A5
:10051000031C8D2AA10A0319DF175B08D800D8171E
:100520005808A1070318DF17DF0DA10CA20CA30CBC
:10053000E20CE10CE00C0310DE0B792A0130A0077D
:100540000318C62AA11BAB2AE20DA30DA20DA10D13
:10055000A0030319C62AE21FBC2AA30A031DBC2A52
:10056000A20A031DBC2AA10A031DBC2AA10CA20CCD
:10057000A30CA00A0319C62A5708DF005B08DF0690
:10058000DF1FC42AA117CA2AA113CA2AA001A101E8
:10059000A201A3012308D9002208D8002108D7000E
:1005A0002008D6004608DD004508DC004408DB00D2
:1005B0004308DA005908E1005808E0005708DF0056
:1005C0005608DE005B08E2005F08E206E21FED2A43
:1005D00003110310DB1B0314202B5B08E2005E08F1
:1005E000E3005A08E3020319FB2AE21F202B030849
:1005F000013A8300202B5F08E3005B08E302031944
:10060000072BE21F202B0308013A8300202B6008F0
:10061000E3005C08E3020319132BE21F202B0308FD
:10062000013A8300202B6108E3005D08E30203190F
:100630001F2BE21F202B0308013A8300202B0310FD
:10064000031C272B83168813831288172B2B8316E2
:100650008813831288138A11962C03081F3983008C
:100660000A3083169900A6309800903083129800C3
:10067000FF30A900AD01AC01AB01AA01B53090007B
:100680008E018F018E010C10AF01AE01B101B001DE
:10069000B301B201B501B401B701B601B901B801A6
:1006A000BA01BE01BD01BC016430BB00C201C10181
:1006B000C001BF01C601C501C401C301CA01C9010E
:1006C000C801C701CE01CD01CC01CB01CF01D001C2
:1006D000D10183161F149F141F159F1107309C0012
:1006E0008312A40183168C16C03083128B048316E8
:1006F00081130614861506158614081788138312AD
:1007000088138316881083128810831608128312A8
:10071000081204202308CE002208CD002108CC00B6
:100720002008CB0004202308CA002208C9002108A1
:10073000C8002008C700831606148312061CC92BA4
:100740000A30D6003D20831606148312061CC92BDE
:100750000810831608108312881183168811081157
:100760008312081583168812831288161030A00091
:10077000A00BB82B000083160811831208118316F2
:100780008812831288121030A000A00BC52B000025
:10079000A32B831686158312861DF72B0A30D600ED
:1007A0003D20831686158312861DF72B08148316A9
:1007B00008108312881583168811081183120815F2
:1007C00083168812831288161030A000A00BE62B27
:1007D00000008316081183120811831688128312F1
:1007E00088121030A000A00BF32B0000D12B831631
:1007F00006158312061D252C0A30D6003D208316CF
:1008000006158312061D252C081483160810831262
:10081000881183168811081183120815831688120F
:10082000831288161030A000A00B142C0000831631
:10083000081183120811831688128312881210304F
:10084000A000A00B212C0000FF2B8316861483121E
:10085000861C532C0A30D6003D2083168614831242
:10086000861C532C081083160810831288158316D3
:1008700088110811831208158316881283128816AE
:100880001030A000A00B422C000083160811831228
:10089000081183168812831288121030A000A00B52
:1008A0004F2C00002D2C831608178312081F602C74
:1008B0000A30D6003D20831608178312081B2E2904
:1008C00004202308CA002208C9002108C800200803
:1008D000C7004B084702D6004808D7004C08031C45
:1008E0004C0FD7024908D8004D08031C4D0FD80201
:1008F0004A08D9004E08031C4E0FD9023E0859027F
:10090000031C9F2C031D942C3D085802031C9F2C94
:10091000031D942C3C085702031C9F2C031D942C90
:1009200056083B0203189F2C442A462A0420230819
:10093000CE002208CD002108CC002008CB009B2B44
:060940000030A10063007D
:02400E00723FFF
:00000001FF
;PIC16F874A
;CRC=C7F3  CREATED="26-may.-23 09:35"
