:1000000003308A00342B0000FF00030E8301A5009B
:100010007F08A4000A08AB008A01A40E0408A60009
:100020002008A7002108A8002208A9002308AA0088
:10003000831383128C308400001C20280C18312874
:10004000260884002708A0002808A1002908A2008B
:100050002A08A3002B088A00250E8300FF0E7F0EBE
:1000600009008A1133280130D3070318D40A031971
:10007000D50A0319D60A8E010B308F00DC308E00B2
:100080000C100C108A1120285E308400000803191F
:1000900056280630A100A001A00B4C28A10B4B282C
:1000A0007B30A000A00B5228800B492808000330A9
:1000B000E602031C642866308400000803196428E3
:1000C00062286228800B6128080008148316081033
:1000D00083128815831688118312600B9A28E20117
:1000E000E10162085F02031C9928031D7B285E085A
:1000F00061020318992883160811831208158316C4
:100100008812831288161030A000A00B85280000EA
:10011000831608118312081183168812831288121D
:100120001030A000A00B92280000E10A0319E20A97
:100130007128C628E401E30164085F02031CC62895
:10014000031DA6285E0863020318C628831608113B
:100150008312081583168812831288161030A000A7
:10016000A00BB02800008316081183120811831613
:100170008812831288120230E500F930E600572019
:10018000E50BBD28E30A0319E40A9C285E08B202C5
:100190005F08031C5F0FB3020800081083160810E5
:1001A00083128815831688118312600B0229E201DD
:1001B000E10162085F02031C0129031DE3285E08B8
:1001C000610203180129831608118312081583168A
:1001D0008812831288161030A000A00BED280000B2
:1001E000831608118312081183168812831288124D
:1001F0001030A000A00BFA280000E10A0319E20A5F
:10020000D9282E29E401E30164085F02031C2E298A
:10021000031D0E295E08630203182E298316081198
:100220008312081583168812831288161030A000D6
:10023000A00B1829000083160811831208118316D9
:100240008812831288120230E500F930E600572048
:10025000E50B2529E30A0319E40A04295E08B40220
:100260005F08031C5F0FB502080083160616831291
:10027000061E4529831606168312061E4529DF0130
:100280000130DE00E00065203A29831686168312CD
:10029000861E5529831686168312861E5529DF0170
:1002A0000130DE00E000CD204A290330DF00E830D5
:1002B000DE000130E0000810831608108312881158
:1002C000831688118312600B9029E201E101620814
:1002D0005F02031C8F29031D71295E086102031848
:1002E0008F2983160811831208158316881283122A
:1002F00088161030A000A00B7B290000831608117F
:100300008312081183168812831288121030A000FD
:10031000A00B88290000E10A0319E20A6729BC2919
:10032000E401E30164085F02031CBC29031D9C294E
:100330005E0863020318BC2983160811831208158E
:1003400083168812831288161030A000A00BA629ED
:100350000000831608118312081183168812831275
:1003600088120230E500F930E6005720E50BB3298A
:10037000E30A0319E40A92295E08B2075F0803182A
:100380005F0FB3070330DF00E830DE000130E0002C
:10039000081483160810831288118316881183129B
:1003A000600BFD29E201E10162085F02031CFC29E8
:1003B000031DDE295E0861020318FC29831608115B
:1003C0008312081583168812831288161030A00035
:1003D000A00BE82900008316081183120811831668
:1003E0008812831288121030A000A00BF52900009B
:1003F000E10A0319E20AD429292AE401E301640885
:100400005F02031C292A031D092A5E0863020318E0
:10041000292A83160811831208158316881283125D
:1004200088161030A000A00B132A000083160811B4
:100430008312081183168812831288120230E50095
:10044000F930E6005720E50B202AE30A0319E40AF5
:10045000FF295E08B4075F0803185F0FB50783160E
:1004600006168312061E3A2ADF010130DE00E00183
:1004700065202F2A831686168312861E452ADF01E1
:100480000130DE00E001CD203A2AB301B201B5010E
:10049000B4018A11692C8A119D2C4608E100450897
:1004A000E0004408DF004308DE00AE30E5004730DE
:1004B000E4000130E3007F30E2005E080319CD2A3A
:1004C000E60062080319CD2AE60703186E2A7F307A
:1004D000E602031CCD2A0319CD2A722A8130E607D1
:1004E0000318CD2A6608A000A101A201A3015F089C
:1004F000EA00EA176008E9006108E8001830E60041
:10050000E701681C9B2A6508A307031C8D2AA20A21
:10051000031D8D2AA10A0319E7176408A207031C0B
:10052000942AA10A0319E7176308E000E01760089E
:10053000A1070318E717E70DA10CA20CA30CEA0C06
:10054000E90CE80C0310E60B802A0130A007031821
:10055000CD2AA11BB22AEA0DA30DA20DA10DA00365
:100560000319CD2AEA1FC32AA30A031DC32AA20A1C
:10057000031DC32AA10A031DC32AA10CA20CA30CAC
:10058000A00A0319CD2A5F08E7006308E706E71F02
:10059000CB2AA117D12AA113D12AA001A101A2011E
:1005A000A3012308E1002208E0002108DF00200861
:1005B000DE004A08E5004908E4004808E30047086F
:1005C000E2006108E9006008E8005F08E7005E08F3
:1005D000E6006308EA006708EA06EA1FF42A031146
:1005E0000310E31B0314272B6308EA006608EB00E3
:1005F0006208EB020319022BEA1F272B0308013ABA
:100600008300272B6708EB006308EB0203190E2B0E
:10061000EA1F272B0308013A8300272B6808EB0009
:100620006408EB0203191A2BEA1F272B0308013A6F
:100630008300272B6908EB006508EB020319262BC2
:10064000EA1F272B0308013A8300272B0310031C02
:100650002E2B8316881383128817322B8316881348
:10066000831288138A119E2C03081F3983000A30D5
:1006700083169900A6309800903083129800FF30BE
:10068000B100B301B201B501B401B701B601B901BE
:10069000B801BB01BA01BD01BC01BE01C201C1016B
:1006A000C0016430BF00C601C501C401C301CA0155
:1006B000C901C801C701CE01CD01CC01CB01D201D6
:1006C000D101D001CF01D601D501D401D301D70189
:1006D000D801D90183161F149F141F159F110730CD
:1006E0009C008312AC0183168C16B53083129000E7
:1006F00083160C1483128E010B308F00DC308E00B9
:10070000C0308B04831681130614861506158614D3
:100710000817881383128813831688108312881091
:1007200083160812831208125608D2005508D10009
:100730005408D0005308CF005608CE005508CD000D
:100740005408CC005308CB00831606148312061CF1
:10075000D22B0A30DE004420831606148312061CB6
:10076000D22B081083160810831288118316881163
:100770000811831208158316881283128816103008
:10078000A000A00BC12B00008316081183120811D2
:1007900083168812831288121030A000A00BCE2B73
:1007A0000000AC2B831686158312861D002C0A30A0
:1007B000DE004420831686158312861D002C081443
:1007C0008316081083128815831688110811831266
:1007D000081583168812831288161030A000A00B0B
:1007E000EF2B00008316081183120811831688125C
:1007F000831288121030A000A00BFC2B0000DA2B13
:10080000831606158312061D2E2C0A30DE004420A6
:10081000831606158312061D2E2C08148316081045
:100820008312881183168811081183120815831604
:100830008812831288161030A000A00B1D2C000017
:1008400083160811831208118316881283128812E6
:100850001030A000A00B2A2C0000082C8316861450
:100860008312861C5C2C0A30DE004420831686141A
:100870008312861C5C2C08108316081083128815BE
:1008800083168811081183120815831688128312A3
:1008900088161030A000A00B4B2C00008316081106
:1008A0008312081183168812831288121030A00058
:1008B000A00B582C0000362C831608178312081F33
:1008C000692C0A30DE004420831608178312081BA7
:1008D00035295608CE005508CD005408CC005308E1
:1008E000CB004F084B02DE004C08DF005008031C11
:1008F000500FDF024D08E0005108031C510FE002C9
:100900004E08E1005208031C520FE1024208610246
:10091000031CA62C031D9C2C41086002031CA62C62
:10092000031D9C2C40085F02031CA62C031D9C2C5D
:100930005E083F020318A62C4B2A4D2A5608D20007
:100940005508D1005408D0005308CF00A42B003024
:04095000A10063009F
:02400E00723FFF
:00000001FF
;PIC16F874A
;CRC=A7AB  CREATED="26-may.-23 09:48"
